:020000040800F2
:10000000F8040020450100087B1300088111000856
:1000100079130008B1010008C517000800000000AE
:100020000000000000000000000000007F13000836
:10003000B3010008000000007D13000881130008D0
:100040005F0100085F0100085F0100085F01000810
:100050005F0100085F0100085F0100085F01000800
:100060005F0100085F0100085F0100085F010008F0
:100070005F0100085F0100085F0100085F010008E0
:100080005F0100085F0100085F0100085F010008D0
:100090005F0100085F0100085F0100085F010008C0
:1000A0005F0100085F0100085F0100085F010008B0
:1000B0005F0100085F0100085F0100085F010008A0
:1000C0005F0100085F0100085F0100085F01000890
:1000D0005F010008B91700085F0100085F01000810
:1000E0005F0100085F0100085F0100085F01000870
:1000F0005F0100085F0100085F0100085F01000860
:100100005F0100085F0100085F0100085F0100084F
:100110005F0100085F0100085F0100085F0100083F
:100120005F0100085F0100085F0100085F0100082F
:10013000DFF80CD000F02AF8004800470518000846
:10014000F80400200648804706480047FEE7FEE71F
:10015000FEE7FEE7FEE7FEE7FEE7FEE7FEE7FEE777
:10016000D113000831010008D2B201E000F8012BE0
:10017000491EFBD270470022F6E710B513460A4627
:1001800004461946FFF7F0FF204610BD064C074D08
:1001900006E0E06840F0010394E807009847103457
:1001A000AC42F6D3FFF7C8FF9C180008BC18000843
:1001B000FEE77047704700002DE9F05F90F82110CE
:1001C0000024022903D004218163012485E0016811
:1001D0000A6822F00E020A6001680A6822F0010231
:1001E0000A603F4E3E4FB215DFF8F4C0DFF8F090E2
:1001F000DFF8ECA0DFF8E8B0DFF8E4E00168783F72
:1002000013011502ACF1640CA9F15009AAF13C0AE2
:10021000ABF1280BAEF1140E4FF48018B14227D980
:10022000B9420ED0614512D049451DD0514518D074
:10023000594518D0714501D1424615E0294EB142C9
:1002400001D1012210E0274E1436B14201D1102213
:100250000AE0244E2836B14206D0224A3C3291426E
:1002600001D11A4600E02A461E49091F0A602BE008
:10027000B94213D0614517D0494522D051451DD010
:1002800059451DD0714501D142461AE0B14202D113
:100290004FF0807215E0134EB14201D1012210E0FF
:1002A000104E1436B14201D110220AE00D4E28360C
:1002B000B14206D00B4A3C32914201D11A4600E0CD
:1002C0002A46074980394A60012180F8211000211F
:1002D00080F82010416B01B188472046BDE8F09FAF
:1002E00080000240080402402DE9F84FDFF8C89171
:1002F000002409F1040A0AF1040B23460F270BF12D
:10030000040ED1E00125A54006EA0502AA4276D1F5
:10031000DFF8A8C14E68A6EB0C0866452BD00DDCB3
:10032000032E34D005DC36B3012E19D0022E2FD186
:100330001BE0112E16D0122E2AD119E0B8F5881F15
:1003400019D006DCB8F5803F15D0B8F5801F1FD155
:1003500011E0B8F5001F0ED0B8F5041F18D10AE05F
:10036000CB6815E0CB681B1D12E0CB6808330FE0AB
:10037000CB680C330CE08B682BB1012B4FF00803DA
:1003800003D0456104E0042302E0056100E000239E
:10039000FF2A01D8064601E000F104064FEA840571
:1003A00001D9A5F12005D6F8008007FA05FC28EA56
:1003B0000C0803FA05F548EA0508C6F800804D6800
:1003C000ED0070D53E4DAE6946F00106AE61AD69F7
:1003D00024F0030605F0010500953A4D06EB050CE7
:1003E000DCF80850A607360F07FA06F825EA0805D4
:1003F000DFF8D480404503D14FF0000825E052E0FB
:10040000DFF8C880404502D14FF001081DE0DFF859
:10041000C080404502D14FF0020816E0DFF8B480FA
:10042000404502D14FF003080FE0DFF8AC804045B3
:1004300002D14FF0040808E0DFF8A080404502D167
:100440004FF0050801E04FF0060808FA06F848EA00
:100450000508CCF808804D68D9F80060ED034D46DA
:1004600001D5164300E096432E604D68DAF800602F
:10047000AD03554601D5164300E096432E604D6806
:10048000DBF80060ED025D4601D5164300E09643BF
:100490002E604D68DEF80060AD02754601D516434A
:1004A00000E096432E60641C0A681646E2407FF422
:1004B00029AFBDE8F88F00000004014000001110D2
:1004C000001002400000014000080140000C014003
:1004D000001001400014014000180140001C0140C0
:1004E000C26821EA02030A4043EA024101617047FF
:1004F0000AB1016170470904FBE700000148806808
:100500007047000000000020024881680278114412
:100510008160704700000020074810B5016841F075
:1005200010010160032000F075F8002000F006F8CB
:1005300000F024F8002010BD0020024070B50D4DE1
:1005400004464FF47A712878B1FBF0F00A49096843
:10055000B1FBF0F000F0ECFA48B9102C07D2002201
:100560002146501E00F036F800206C6070BD01205E
:1005700070BD0000000000200C0000200C4808B5F1
:10058000816941F001018161816901F001010091FE
:10059000C16941F08051C161C06900F08050009094
:1005A0000448416821F0E06141F00071416008BDFC
:1005B0000010024000000140002809DB00F01F028B
:1005C000012191404009800000F1E020C0F80011B5
:1005D00070470000F0B40E4B1B680C46C3F30223B7
:1005E000C3F10705042D00D90425191D072901D2DF
:1005F000002300E0DB1E012606FA05F1491E21401A
:1006000099409E40761E16403143F0BC01F0DBB8A5
:100610000CED00E0064900F0070208684FF6FF0302
:10062000184040EA0220034A104308607047000067
:100630000CED00E00000FA052DE9F0470F4605003B
:1006400061D0434E306800F00700B84209D23068EC
:1006500020F0070038433060306800F00700B842EF
:1006600051D128683B4C810712D5400703D56068FB
:1006700040F4E06060602878000703D5606840F4CB
:10068000605060606068A96820F0F0000843606016
:100690002878C00728D06868012810D0216802286F
:1006A00010D0890700292EDA616821F00301014387
:1006B0006160FFF723FF804641F288390DE0216831
:1006C0008903EFE78901EDE7FFF718FFA0EB0801C9
:1006D000494502D90320BDE8F0876068696800F0E9
:1006E0000C00B0EB810FEFD1306800F00700B8428A
:1006F0000BD9306820F0070038433060306800F0D4
:100700000700B84201D00120E5E72878400705D569
:100710006068E96820F4E0600843606028780007BA
:1007200006D56068296920F4605040EAC100606025
:1007300000F038F86168084AC1F30311515CC84001
:100740000649086006480068FFF7F8FE0020C2E787
:100750000020024000100240821800080C00002017
:10076000040000200448054900684968044AC1F3B0
:100770000221515CC84070470C000020001002406C
:10078000921800080448054900684968044AC1F302
:10079000C221515CC84070470C000020001002408C
:1007A0009218000812A185B00FC98DE80F0014A09F
:1007B000144A006804905168134801F00C03042B9C
:1007C00010D0082B0ED1C1F38343C9031DF80300D9
:1007D0000AD5516804AAC1F34041515C0A4A50430A
:1007E000B0FBF1F005B0704708494843FAE7000054
:1007F00002030405060708090A0B0C0D0E0F101062
:10080000010200000010024000127A0000093D00C1
:100810002DE9F84F040070D02078C04DC00749D0B2
:100820006868C0F38100012807D06868C0F38100C0
:10083000022809D16868C00306D52868800339D525
:1008400060680028E7D035E06068B0F5803F0BD0E5
:1008500010B1B0F5A02F11D0286820F480302860A6
:10086000286820F4802002E0286840F48030286066
:10087000606890B1FFF742FE06460AE0286840F43F
:1008800080202860F0E700BFFFF738FE801B642857
:1008900073D828688003F7D50CE0FFF72FFE0646D3
:1008A00005E000BFFFF72AFE801B6428F0D8286807
:1008B0008003F7D420789A4E80074FF001094FF05B
:1008C000000839D5686810F00C0F07D06868C0F3CD
:1008D0008100022809D16868C00306D4286880070F
:1008E00014D52069012808D110E02069B0B1C6F8FC
:1008F0000090FFF703FE074605E00AE1FFF7FEFD63
:10090000C01B0228C4D828688007F7D52868616909
:1009100020F0F80040EAC10028600DE0C6F8008031
:10092000FFF7ECFD074604E0FFF7E8FDC01B0228D7
:1009300023D828688007F7D4207800072CD5794879
:10094000A169D9B1C0F80090FFF7D8FD074604E0CF
:10095000FFF7D4FDC01B02280FD8686A8007F7D5BF
:1009600071484FF4FA510068B0FBF1F0009000BFFD
:100970000098411E0091FAD20EE080E0C0F800809D
:10098000FFF7BCFD074604E0FFF7B8FDC01B0228D7
:1009900075D8686A8007F7D42078400760D5E86981
:1009A0000027C00008D4E86940F08050E861E86999
:1009B000012700F0805000905C480168C90513D4FD
:1009C0000168834641F480710160FFF797FD82461C
:1009D00006E000BFFFF792FDA0EB0A0064284ED8A6
:1009E000DBF80000C005F5D5E06801280AD008B1A1
:1009F000052813D0286A20F001002862286A20F018
:100A0000040002E0286A40F001002862E06841F238
:100A1000883B98B1FFF772FD82460BE0286A40F0F0
:100A200004002862EEE700BFFFF768FDA0EB0A01B3
:100A300059455AD8286A8007F6D50CE0FFF75EFDC5
:100A4000824605E0FFF75AFDA0EB0A0159454CD854
:100A5000286A8007F6D41FB1E86920F08050E86169
:100A6000E06988B36968C1F38101022944D0022892
:100A7000C6F8608004D0FFF741FD044638E034E05A
:100A8000FFF73CFD074604E0FFF738FDC01B0228D6
:100A90002BD828688001F7D4206AB0F5803F05D1B3
:100AA0006868A16820F4003008436860D4E9080150
:100AB0000843696821F4741108436860C6F86090BF
:100AC000FFF71CFD044606E025E000BFFFF716FD1A
:100AD000001B022809D828688001F7D51BE000BF59
:100AE000FFF70CFD001B022802D90320BDE8F88F98
:100AF00028688001F4D40EE00128F7D06868226AE3
:100B000000F48031914204D1616A00F4701088428F
:100B100001D00120EAE70020E8E7000000100240D1
:100B200000004242800442420C000020007000405D
:100B300010B5401EB0F1807F01D3012010BD4FF0F1
:100B4000E02460610F21601700F03DFE0020A061ED
:100B500007202061002010BD70B590F83C20012ACC
:100B60002CD0012480F83C40022280F83D2003680C
:100B70005A689D6822F070060A6832435A60104B2A
:100B800002689A420ED00F4B9A420BD0B2F1804FBE
:100B900008D00D4B9A4205D00C4B9A4202D00C4B18
:100BA0009A4204D1496825F080031943916080F886
:100BB0003D40002180F83C10084670BD022070BD09
:100BC000002C0140003401400004004000080040B7
:100BD000000C004010B586B00021009101910291F7
:100BE0000391214A016821480224914221D181695F
:100BF00041F004018161816901F00401049181697E
:100C000041F0080181618069694600F008000490A4
:100C1000C020CDE9000416480394FFF765FB0320CC
:100C2000CDE90004694613480394FFF75DFB06B065
:100C300010BD114A9142FAD1816941F020018161D0
:100C40008069694600F0200004909014CDE900040A
:100C50000A480394FFF748FB0948416841F0E06106
:100C600041F480514160E2E700040040001002407E
:100C700000080140000C0140000800400014014041
:100C80000000014070B5044690F83C000D46012874
:100C90000AD0012084F83C0042B1042A18D0082A66
:100CA0002AD00C2A4DD139E0022070BD206800F016
:100CB000D7FB2068816941F0080181612068816962
:100CC00021F004018161206881692A69114311E0E2
:100CD000206800F0F5FB2068816941F400618161C2
:100CE0002068816921F480618161206881692A69B5
:100CF00041EA0221816124E0206800F017FC2068AD
:100D0000C16941F00801C1612068C16921F0040195
:100D1000C1612068C1692A69114311E0206800F0AF
:100D200039FC2068C16941F40061C1612068C16972
:100D300021F48061C1612068C1692A6941EA022108
:100D4000C161002084F83C0070BD10B5040003D0E0
:100D500094F83D0010B107E0012010BD002084F898
:100D60003C00204600F01EF8022084F83D00211DC2
:100D7000206800F02FFB012084F8460084F83E0034
:100D800084F83F0084F8400084F8410084F8420071
:100D900084F8430084F8440084F8450084F83D005A
:100DA000002010BD08B50C4A01680C48914207D1DB
:100DB000C16941F00201C161C06900F0020009E0AF
:100DC000074A914207D1C16941F00401C161C0697C
:100DD00000F00400009008BD000400400010024034
:100DE000000800407047000070B5026804461068B3
:100DF000D168536910F00F0F52D003F0010501F4D0
:100E000090762E435FD0C20705D0CA0503D5E26BAA
:100E100042F00102E263420705D5DA0703D0E26B34
:100E200042F00202E263820705D5DA0703D0E26BE3
:100E300042F00402E263020707D501F020022A43D0
:100E400003D0E26B42F00802E263E26B002A33D087
:100E5000800604D5880602D5204600F0D9FB20681C
:100E60004069E16BC0F38010090700D428B3204625
:100E700000F0C0FB2068416949061AD5416921F09C
:100E800040014161606BA0B12D494163606BFFF788
:100E900093F9002810D0606B416BBDE870400847A3
:100EA000830610D58B060ED52046BDE8704000F0B5
:100EB000AFBB2046FFF796FF70BD2046FFF792FFBD
:100EC0000020E06370BD03062BD50B0629D594F8EE
:100ED00039002128F6D1A068B0F5805F01D12069E2
:100EE000B0B1206A411C2162216800784860E08C22
:100EF000401E0004000CE084E4D12068C16821F0A9
:100F00008001C1602068C16841F04001C16070BDCE
:100F1000206A0088C0F308005060206A801C2062AC
:100F2000E5E74006F3D54806F1D5D168204621F023
:100F30004001D160202184F8391000F020F970BD03
:100F4000E515000870B5040004D094F839000025B8
:100F500010B106E0012070BD84F83850204600F042
:100F600023F8242084F839002068C16821F4005156
:100F7000C160204600F092FB2068016921F4904195
:100F800001612068416921F02A0141612068C1683E
:100F900041F40051C160E563202084F8390084F8F1
:100FA0003A00002070BD000030B585B000240094E8
:100FB0000194029403940068184988422CD118487F
:100FC000816941F480418161816901F4804104912A
:100FD000816941F0040181618069124D00F00400D3
:100FE00004904FF4007000900220019003200390C1
:100FF00069462846FFF778F92815CDE900046946C7
:1010000028460294FFF770F9002211462520FFF7C9
:10101000E1FA2520FFF7D0FA05B030BD00380140D5
:10102000001002400008014090F83A30202B22D1F5
:10103000F9B1F2B190F83830012B1CD08162828571
:10104000C2850021C163222280F83A2080F838103E
:101050000168CA6842F48072CA6001684A6942F055
:1010600001024A610068C16841F02001C1600020AE
:101070007047012070470220704700000F4910B5EB
:1010800001F10A0000F0EAFB0C480A3000F0D0FB46
:1010900020210B48FFF724FA4FF47A730A220749FC
:1010A000084800F013F820210748FFF719FABDE8B7
:1010B00010400A2201490348FFF7B6BF1000002084
:1010C00000180140B4000020000C01402DE9F84355
:1010D000044690F839001F4616460D4620284CD18C
:1010E000C5B1BEB194F83800012846D0012084F87B
:1010F00038004FF00008C4F83C80212084F8390003
:10110000FFF7FCF9A6848146E684A068B0F5805F0D
:1011100003D004E00120BDE8F883206928B12E4601
:101120005FF0000584F838800EE00026FAE78021A1
:10113000204600F00FFBA0B9AEB116F8010B2168F4
:101140004860E08C401EE084E08C4B464FF000028B
:1011500000970028EBD14FF04001204600F0FAFA4A
:1011600030B10320D7E735F8020BC0F30800E6E7FB
:10117000202084F839000020CDE70220CBE770471B
:10118000FEE700002DE9F04186B0002000900190BC
:10119000029003902148816941F040018161816999
:1011A00001F040010491816941F00401816181698C
:1011B00001F004010491816941F0080181618169B4
:1011C00001F008010491816941F020018161806989
:1011D000134F00F020000490002220213846FFF732
:1011E00087F9DFF84080002220214046FFF780F990
:1011F000012420250326CDE90054CDE902466946A5
:101200003846FFF771F8CDE90054CDE9024669464A
:101210004046FFF769F806B0BDE8F08100100240D3
:1012200000180140000C014010B58AB0002407945A
:101230001C2168460894FEF79EFF2348214901605F
:101240004FF6FF11C0E9011444F62061C0E9031410
:101250008461FFF77AFD08B1FEF7ACFF079407A998
:1012600019480894FFF778FC08B1FEF7A3FF602047
:10127000CDE9000402940022694613480494FFF764
:1012800001FD08B1FEF796FF042269460E48FFF7FC
:10129000F9FC08B1FEF78EFF082269460A48FFF7FD
:1012A000F1FC08B1FEF786FF0C2269460648FFF7FD
:1012B000E9FC08B1FEF77EFF0348FFF78BFC0AB09C
:1012C00010BD0000000400402400002010B58AB0CA
:1012D000002407941C2168460894FEF74CFF174829
:1012E000154901604FF6FF11C0E9011444F6206171
:1012F000C0E903148461FFF728FD08B1FEF75AFF27
:10130000079407A90D480894FFF726FC08B1FEF7DB
:1013100051FF6020CDE9000402940022694607488D
:101320000494FFF7AFFC08B1FEF744FF0348FFF752
:1013300051FC0AB010BD0000000800406C00002005
:101340000C4810B50A4901604FF461414160002129
:1013500081600C22C160C0E904128161C161FFF7A4
:10136000F1FD002803D0BDE81040FEF723BF10BDFB
:1013700000380140B4000020FEE770477047704716
:10138000FFF7C2B830B58FB028216846FEF7F3FEEC
:1013900014210AA8FEF7EFFE022401200490009415
:1013A0001020059000254FF46010CDE908500794F7
:1013B0006846FFF72DFA0AA90F2081E83100600284
:1013C000CDE90D0502210AA8FFF736F90FB030BDAF
:1013D00070470000F0B502681C4B1D4D1D4E1E4F9E
:1013E0001E4C4FF0804C984209D0A04207D0604577
:1013F00005D0A84203D0B04201D0B84204D122F0B7
:10140000700E4A6842EA0E02984209D0A04207D004
:10141000604505D0A84203D0B04201D0B84203D104
:1014200022F44075CA682A434D6922F080022A439B
:1014300002608A68C2620A688262984201D0A04251
:1014400001D10969016301214161F0BD002C014016
:101450000004004000080040000C0040003401403F
:10146000F0B5026A22F001020262036A42688469EE
:10147000124E24F073050C682C4323F002058B6890
:101480002B430D4DA84201D0B04205D123F00807EF
:10149000CB683B4323F00403A84201D0B04205D1FE
:1014A0004D6922F4407215438A692A43426084617F
:1014B000496841630362F0BD002C014000340140E3
:1014C000F0B5026A22F010020262026A436884697F
:1014D0000D6824F4E64444EA05248D6822F02002D5
:1014E00042EA05120F4D104EA84201D0B04206D17B
:1014F000CF6822F0800242EA071222F04002A8429E
:1015000001D0B04207D14D6923F4406343EA85031B
:101510008D6943EA8503436084614968816302629F
:10152000F0BD0000002C014000340140F0B5026A1B
:1015300022F480720262026A4368C46922F4007273
:1015400024F073050C68124E2C438D6842EA052284
:101550000E4DA84201D0B04206D1CF6822F40062FD
:1015600042EA072222F48062A84201D0B04207D1A9
:101570004D6923F4405343EA05138D6943EA05138B
:101580004360C4614968C1630262F0BD002C014040
:101590000034014030B5026A22F480520262046ACB
:1015A0004268C3690D6823F4E64343EA05238D6866
:1015B00024F4005444EA0534084DA84202D0084DF2
:1015C000A84204D14D6922F4804242EA8512426069
:1015D000C36149680164046230BD0000002C014011
:1015E0000034014010B5406A0021C185C184FFF775
:1015F000F9FB10BD0168CA6822F49072CA600168E4
:101600004A6922F001024A61202180F83A107047AD
:1016100010B590F83A10222901D0022010BD82683E
:101620004FF480539A4201D1016921B1816A9A42F3
:101630001BD04AB10AE00268816A5268C2F308020C
:101640000A80816A891C08E0026972B102685268E6
:1016500002F07F020A70816A491C8162C18D491EB5
:101660000904090CC18503D016E002685268F1E74D
:101670000168CA6822F02002CA600168CA6822F4C0
:101680008072CA6001684A6922F001024A61202121
:1016900080F83A10FFF7F2FC002010BD70B5044648
:1016A00000680169E26821F4405111430161216938
:1016B000A0680843616908432168CA6841F20C6365
:1016C0009A430243CA6020684169A26921F44071CB
:1016D000114341611E492068884202D1FFF752F848
:1016E00001E0FFF73FF800EBC00101EB001260687A
:1016F00064218000B2FBF0F3B3FBF1F36FF0180646
:101700007343B2FBF0F5B2FBF0F605EB8305322331
:1017100003EB0515B5FBF1F5B6FBF1F605F0F005A9
:1017200005EB0615B2FBF0F6B2FBF0F0B0FBF1F002
:101730006FF01802504306EB800003EB0010B0FB83
:10174000F1F0216800F00F002844886070BD0000AF
:10175000003801402DE9F041984617460E460446F0
:10176000069D1DE0681C1BD02DB1FEF7C7FEA0EB47
:101770000800A84214D92068C16821F4D071C16062
:101780002068416921F001014161202084F839007D
:1017900084F83A00002084F838000320BDE8F08186
:1017A0002068006836EA000004D00020B842D9D092
:1017B0000020F3E70120F9E70148FFF715BB00001F
:1017C000B4000020FEE70907090E002804DB00F141
:1017D000E02080F80014704700F00F0000F1E020D6
:1017E00080F8141D704702E008C8121F08C1002AC3
:1017F000FAD170477047002001E001C1121F002A92
:10180000FBD17047FEF788FEFFF7BCFDFFF7BAFC7F
:10181000FFF796FDFFF708FDFFF758FD0A22024982
:101820000248FFF701FCFEE710000020B400002092
:10183000084902880B685A630B6842889A630B68F0
:101840008288DA630968C2880A64034900890968E2
:1018500048637047240000206C00002030B500224F
:1018600001EB420311F812405B7804EBC40505EB71
:10187000041403EB840320F81230521C052AEFDB1A
:1018800030BD000000000000000001020304060754
:10189000080900000000010203040000BC18000851
:1018A0000000002010000000E6170008CC18000817
:1018B00010000020E8040000F617000801000000F6
:0C18C00010000000000000000024F400F4
:0400000508000131BD
:00000001FF
